{
  "contractName": "BlockList",
  "abi": [
    {
      "constant": false,
      "inputs": [
        {
          "name": "_name",
          "type": "string"
        },
        {
          "name": "_description",
          "type": "string"
        },
        {
          "name": "_price",
          "type": "uint256"
        }
      ],
      "name": "sellItem",
      "outputs": [],
      "payable": false,
      "stateMutability": "nonpayable",
      "type": "function"
    },
    {
      "constant": true,
      "inputs": [],
      "name": "getItem",
      "outputs": [
        {
          "name": "_seller",
          "type": "address"
        },
        {
          "name": "_name",
          "type": "string"
        },
        {
          "name": "_description",
          "type": "string"
        },
        {
          "name": "_price",
          "type": "uint256"
        }
      ],
      "payable": false,
      "stateMutability": "view",
      "type": "function"
    }
  ],
  "bytecode": "0x6060604052341561000f57600080fd5b6105108061001e6000396000f30060606040526004361061004c576000357c0100000000000000000000000000000000000000000000000000000000900463ffffffff1680635f1305ef14610051578063c412eaba146100fa575b600080fd5b341561005c57600080fd5b6100f8600480803590602001908201803590602001908080601f0160208091040260200160405190810160405280939291908181526020018383808284378201915050505050509190803590602001908201803590602001908080601f0160208091040260200160405190810160405280939291908181526020018383808284378201915050505050509190803590602001909190505061022e565b005b341561010557600080fd5b61010d6102a8565b604051808573ffffffffffffffffffffffffffffffffffffffff1673ffffffffffffffffffffffffffffffffffffffff1681526020018060200180602001848152602001838103835286818151815260200191508051906020019080838360005b8381101561018957808201518184015260208101905061016e565b50505050905090810190601f1680156101b65780820380516001836020036101000a031916815260200191505b50838103825285818151815260200191508051906020019080838360005b838110156101ef5780820151818401526020810190506101d4565b50505050905090810190601f16801561021c5780820380516001836020036101000a031916815260200191505b50965050505050505060405180910390f35b336000806101000a81548173ffffffffffffffffffffffffffffffffffffffff021916908373ffffffffffffffffffffffffffffffffffffffff160217905550826001908051906020019061028492919061042b565b50816002908051906020019061029b92919061042b565b5080600381905550505050565b60006102b26104ab565b6102ba6104ab565b60008060009054906101000a900473ffffffffffffffffffffffffffffffffffffffff1660016002600354828054600181600116156101000203166002900480601f01602080910402602001604051908101604052809291908181526020018280546001816001161561010002031660029004801561037a5780601f1061034f5761010080835404028352916020019161037a565b820191906000526020600020905b81548152906001019060200180831161035d57829003601f168201915b50505050509250818054600181600116156101000203166002900480601f0160208091040260200160405190810160405280929190818152602001828054600181600116156101000203166002900480156104165780601f106103eb57610100808354040283529160200191610416565b820191906000526020600020905b8154815290600101906020018083116103f957829003601f168201915b50505050509150935093509350935090919293565b828054600181600116156101000203166002900490600052602060002090601f016020900481019282601f1061046c57805160ff191683800117855561049a565b8280016001018555821561049a579182015b8281111561049957825182559160200191906001019061047e565b5b5090506104a791906104bf565b5090565b602060405190810160405280600081525090565b6104e191905b808211156104dd5760008160009055506001016104c5565b5090565b905600a165627a7a72305820e1f30f8d0001435e5364f7b5f96b2d779fcf633f7c75f5baa1b2ec16532db12b0029",
  "source": "pragma solidity ^0.4.11;\n\ncontract BlockList {\n  // State variables\n  address seller;\n  string name;\n  string description;\n  uint256 price;\n\n  // sell an item\n  function sellItem(string _name, string _description, uint256 _price) public {\n    seller = msg.sender;\n    name = _name;\n    description = _description;\n    price = _price;\n  }\n\n  // get the item\n  function getItem() public constant returns (\n      address _seller,\n      string _name,\n      string _description,\n      uint256 _price\n    ) {\n      return(seller, name, description, price);\n    }\n}\n",
  "sourcePath": "/media/phil/InternalStorage/Sites/_howto/howto-blockchain/getting-started-ethereum-solidity/blocklist/contracts/BlockList.sol",
  "compiler": {
    "name": "solc",
    "version": "0.4.18+commit.9cf6e910.Emscripten.clang"
  },
  "schemaVersion": "1.0.1",
  "updatedAt": "2018-01-05T03:35:54.305Z"
}